:020000040800F2
:10000000C007032409040008A92D0108E1FE000827
:10001000B12C010881150008F1B8010800000000AA
:100020000000000000000000000000005143010833
:10003000692C000800000000313A0108F946010867
:1000400027040008270400082704000827040008E4
:1000500027040008270400082704000827040008D4
:10006000270400082704000827040008E91C0008EA
:10007000F91C0008091D0008191D0008291D0008A9
:10008000270400082704000827040008312E000870
:10009000512E0008412E0008612E00082704000898
:1000A0002704000827040008270400082704000884
:1000B00071490108270400082704000827040008E4
:1000C0002704000827040008270400082704000864
:1000D00061410108797B0108897B01082704000838
:1000E00027040008270400080000000081490108D7
:1000F000270400082704000827040008391D000809
:100100002704000827040008270400082704000823
:1001100027040008116801082704000827040008C4
:10012000491D00082704000827040008591D00087D
:10013000691D000827040008270400082704000898
:1001400000000000000000000000000000000000AF
:1001500027040008270400082704000827040008D3
:1001600027040008270400082704000827040008C3
:1001700027040008D132010827040008000000000D
:1001800027040008270400082704000827040008A3
:100190002704000827040008270400082704000893
:1001A00027040008270400082704000800000000B6
:1001B0002704000827040008270400082704000873
:1001C00027040008270400080000000000000000C9
:1001D00000000000000000002704000800000000EC
:1001E000000000000000000000000000000000000F
:1001F0000000000000000000270400082704000899
:100200002704000827040008000000002704000855
:100210002704000827040008270400082704000812
:100220002704000800000000270400080000000068
:100230002704000827040008000000002704000825
:1002400027040008270400082704000827040008E2
:1002500027040008270400082704000827040008D2
:1002600027040008270400082704000827040008C2
:1002700027040008270400082704000800000000E5
:1002800027040008270400082704000827040008A2
:1002900000000000270400082704000800000000F8
:1002A00000000000270400082704000827040008B5
:1002B000270400082704000827040008712E0008FE
:1002C000812E0008270400082704000800F002F827
:1002D00000F08BF814A696E8000CB244B344DA455B
:1002E00001D100F082F8BAE80F000FA696E83000BE
:1002F000A5EB040504EB0607AAEB0704A7F1010729
:100300004FEA15154FEA3414A4F10104AC4201D3AD
:1003100000F06BF813F0010F18BFFB1A43F0010354
:1003200000F001F8DBE7184738710200787102002D
:100330000A444FF0000C10F8013B13F0070408BF0B
:1003400010F8014B1D1108BF10F8015B641E05D0A9
:1003500010F8016B641E01F8016BF9D113F0080F5E
:100360001EBF10F8014BAD1C0C1B09D16D1E58BFF0
:1003700001F801CBFAD505E014F8016B01F8016B27
:100380006D1EF9D59142D6D370470000103A24BFB4
:1003900078C878C1FAD8520724BF30C830C144BFEA
:1003A00004680C60704700007047000000230024C0
:1003B00000250026103A28BF78C1FBD8520728BF75
:1003C00030C148BF0B6070471FB525F0BEFE9DE8E9
:1003D000030000F041FA00F007FB00F009FA1FBD2E
:1003E00010B5002000F0CEFA10BD00F012FB11464F
:1003F000FFF7EAFF22F074FF00F030FB03B4FFF7D1
:10040000EFFF03BC00F0FEFA0A4880470A48804725
:100410000A480047FEE7FEE7FEE7FEE7FEE7FEE7E5
:10042000FEE7FEE7FEE7FEE705480649064A074BFA
:1004300070470000092E000809480108CD02000895
:10044000C0EF0224C0070324C0F70224C0F702242F
:1004500070B5064600F0E4F9056806F10B0020F0DF
:100460000704B4429CBF002070BD2B466A68BAB135
:100470001068A04210D304F1080188423CBF5068C4
:10048000586007D35168101941601168091B016059
:1004900058601460101D70BD13465268002AE7D1E1
:1004A0002146284600F0C4F90028DED170BD70B5A1
:1004B0000446051F00F0B4F90068002C14BF44681E
:1004C00070BD002C18BFAC423CBF20466468F8D316
:1004D00001680A18AA4218BF456003D12A68054678
:1004E0001144016028684119A1421CBF6C6070BDB5
:1004F0006168696021680844286070BD53EA020C95
:1005000000F069802DE9F04B4FF00006002B1FBF73
:10051000B3FA83F503FA05F424FA05F65E4012BF38
:100520001643B2FA82F502FA05F4C5F120051EBFA2
:1005300022FA05FC44EA0C04203556EA044C4FEA42
:10054000144418BF641C4FF000084FF0000990429B
:1005500071EB030C39D3002919BFB1FA81F701FA05
:1005600007F6B0FA80F700FA07F6C7F120071EBFBA
:1005700020FA07FC46EA0C062037B6FBF4FCA7EB92
:100580000507103F07F01F0BCBF120062CFA06F6EB
:100590000CFA0BFB44BFB3460026202FA4BF5E46D7
:1005A0004FF0000B5BEA060C08BF4FF0010B19EB94
:1005B0000B0948EB0608ABFB027C06FB02CC0BFBED
:1005C00003CCC01B71EB0C01C1E70B460246414650
:1005D0004846BDE8F08B13B5084318BF4FF0FF3015
:1005E0000146AFF30080BDE81C40704753EA020C9F
:1005F00023D010B54C1084EA530404D54042C1F115
:10060000000138BF491E1B4204D55242C3F100030A
:1006100038BF5B1EFFF772FF14F0804F04D04042DA
:10062000C1F1000138BF491E14F0004F04D05242FE
:10063000C3F1000338BF5B1E10BD13B540424FF03D
:10064000000070EB0104B8BF012001F00041002858
:100650001CBF6FF000414FF0FF30AFF300801CBDB6
:100660000B460146184600F037B9032A40F23080A5
:1006700010F0030C00F0158011F8013BBCF1020FE3
:10068000624498BF11F801CB00F8013B38BF11F864
:10069000013BA2F1040298BF00F801CB38BF00F87B
:1006A000013B11F0030300F02580083AC0F00880F8
:1006B00051F8043B083A51F804CBA0E80810F5E7DC
:1006C000121D5CBF51F8043B40F8043BAFF30080BF
:1006D000D20724BF11F8013B11F801CB48BF11F834
:1006E000012B24BF00F8013B00F801CB48BF00F804
:1006F000012B704710B5203AC0F00B80B1E81850BC
:10070000A0E81850B1E81850A0E81850203ABFF4FB
:10071000F5AF5FEA027C24BFB1E81850A0E818509A
:1007200044BF18C918C0BDE810405FEA827C24BFEE
:1007300051F8043B40F8043B08BF7047D20728BF7C
:1007400031F8023B48BF11F8012B28BF20F8023BCB
:1007500048BF00F8012B70474FF000020429C0F099
:10076000128010F0030C00F01B80CCF1040CBCF1E3
:10077000020F18BF00F8012BA8BF20F8022BA1EB35
:100780000C0100F00DB85FEAC17C24BF00F8012B1A
:1007900000F8012B48BF00F8012B70474FF0000212
:1007A00000B5134694469646203922BFA0E80C5067
:1007B000A0E80C50B1F12001BFF4F7AF090728BF42
:1007C000A0E80C5048BF0CC05DF804EB890028BFBE
:1007D00040F8042B08BF704748BF20F8022B11F0E7
:1007E000804F18BF00F8012B704770477047704763
:1007F00008487CB57844009007487844009C05463A
:10080000019004E02046016808448047241DAC4262
:10081000F8D17CBDA86C0200A66C020000207047D5
:1008200000487047C80400247047704770477047FD
:1008300038B504460A4600206946AFF30080002818
:1008400008BF38BD02460099204600F075F8012027
:1008500038BD012000F0CEB8F8B5AFF300800546F2
:1008600000200C460C2000BF0646A819A0420DD956
:10087000324669460020AFF30080070008BF00F051
:10088000B9F80098A04218BF0546C419FFF7C8FF81
:1008900005600746F01D20F007004619284600F0C5
:1008A0000AF8B44208BFF8BDA21B31463868BDE85B
:1008B000F84000F041B800210160416070470C2011
:1008C000704710B500F034F8006810BD10B504464C
:1008D00000F02EF8046010BD2DE9F04107461546E2
:1008E0000E461020FFF7B4FD040013D06760C4E982
:1008F00002650948AFF3008000F016F80168216036
:1009000006490460002008600348AFF3008000201F
:10091000BDE8F0810120FBE700000020A0000024DA
:1009200000487047C004002400487047F8040024C1
:1009300000487047C0040024034640688C460028E5
:1009400018BF88423CBF03464068F8D31868184473
:10095000884207D00CF1030020F00700001D411A67
:10096000521A0146081D0A60FFF7A1BD10B500200C
:1009700000F082F8FFF734FDBDE81040012000F0E0
:1009800041B800002DE9F84306461548AFF3008052
:10099000FFF7CAFF134F8146E8464D4616E026B1E1
:1009A000E068B04201D0254610E0206828600C487D
:1009B000C7F80080AFF30080D4E9010188470848F8
:1009C000AFF300803968414500D04D462C68002CBB
:1009D000E5D1002038600248AFF30080BDE8F8831D
:1009E00000000020A00000240148FFF717BF00000E
:1009F0000000002010B500F047F8BDE8104000F0FE
:100A000036B8000001491820ABBEFEE72600020000
:100A100070477546FFF784FFAE46050069465346AA
:100A200020F00700854618B020B5FFF7FDFCBDE8B3
:100A300020404FF000064FF000074FF000084FF045
:100A4000000BAC46ACE8C009ACE8C009ACE8C00992
:100A5000ACE8C00921F007018D46704710B5044687
:100A6000AFF300802046BDE81040FFF7C7BC002868
:100A700001D0FFF7C7BF704710B500F047F8BDE8D9
:100A80001040FFF7F4BF000010B5012805D0002189
:100A900003A000F021F8012010BD09A1F8E7000033
:100AA00053494752544D454D3A204F7574206F6657
:100AB0002068656170206D656D6F727900000000BF
:100AC0003A2048656170206D656D6F727920636FA3
:100AD000727275707465640070B505460C460A2024
:100AE00000E06D1C00F02AF835B128780028F8D114
:100AF00002E0641C00F022F814B120780028F8D13C
:100B0000BDE870400A2000F019B8000010B50021BF
:100B100002A0FFF7E1FF012010BD0000534947414B
:100B20004252543A2041626E6F726D616C2074655E
:100B3000726D696E6174696F6E00000008B5694678
:100B40008DF800000320ABBE08BD000000000000CF
:100B500080B584B0039024F013F902900120019035
:100B6000FFE700F00DF802A8012123F07DFCF8E773
:100B700080B541F63840C2F200401BF045FB80BD15
:100B800080B541F63840C2F200401BF051FC80BDF8
:100B900080B540F24040C2F200004EF6F731C2F29A
:100BA00002414FF480720EF03FF845F25030C2F22D
:100BB000014000681021C4F20201884200F0B280B6
:100BC000FFE745F25030C2F2014000682821C4F22C
:100BD0000201884200F0A680FFE745F25030C2F2E1
:100BE000014000684021C4F20201884200F09A806E
:100BF000FFE745F25030C2F2014000685821C4F2CC
:100C00000201884200F08E80FFE745F25030C2F2C8
:100C1000014000687021C4F20201884200F0828025
:100C2000FFE745F25030C2F2014000688821C4F26B
:100C30000201884276D0FFE745F25030C2F201400F
:100C40000068A021C4F2020188426BD0FFE745F2A0
:100C50005030C2F201400068B821C4F2020188425B
:100C600060D0FFE745F25030C2F20140006840F228
:100C70001041C4F20201884254D0FFE745F25030DF
:100C8000C2F20140006840F22841C4F202018842E9
:100C900048D0FFE745F25030C2F20140006840F210
:100CA0004041C4F2020188423CD0FFE745F2503097
:100CB000C2F20140006840F25841C4F20201884289
:100CC00030D0FFE745F25030C2F20140006840F2F8
:100CD0007041C4F20201884224D0FFE745F250304F
:100CE000C2F20140006840F28841C4F20201884229
:100CF00018D0FFE745F25030C2F20140006840F2E0
:100D0000A041C4F2020188420CD0FFE745F2503006
:100D1000C2F20140006840F2B841C4F202018842C8
:100D20000AD1FFE745F25030C2F20140016808687D
:100D300020F00800086009E045F25030C2F201409E
:100D40000168086820F004000860FFE780BD00002B
:100D500080B582B000208DF80700FFE79DF80700FE
:100D600003281FD8FFE79DF8073044F2F470C2F261
:100D70000140143000EB43118A6840F22411C2F2A2
:100D8000000141F823209DF8072000EB4210808BE2
:100D900001EB42010882FFE79DF8070001308DF862
:100DA0000700DBE740F24850C2F20040007840F212
:100DB0002411C2F20001009181F8250007F078FCAF
:100DC00000998861086A01300862012081F82400D6
:100DD00002B080BD0000000080B588B04EF6F7304C
:100DE000C2F202400078AB2840F09880FFE74EF650
:100DF000F730C2F2024090F83F00FD2840F08E80AC
:100E0000FFE700208DF81F00FFE79DF81F00032873
:100E100033DCFFE706A805909DF81F104EF6F7306B
:100E2000C2F2024000EB81014978059A11709DF8E9
:100E30001F1000EB81018978059A51709DF81F10F1
:100E400000EB8101C978059A91709DF81F1000EBA5
:100E5000810000790599C87006989DF81F2044F21A
:100E6000F471C2F2014101EB4211C861FFE79DF844
:100E70001F0001308DF81F00C7E700208DF8130018
:100E8000FFE79DF8130003281ADCFFE79DF8132005
:100E90004EF6F730C2F2024000EB4201487C897CFA
:100EA00040EA012044F2F471C2F2014101EB421127
:100EB0000886FFE79DF8130001308DF81300E0E786
:100EC00003A802904EF6F730C2F202400190417E34
:100ED000029A1170817E029A5170C17E029A9170BD
:100EE000017F029AD170039944F63822C2F201427E
:100EF000C2F8581200F11D0140F60040C2F2004055
:100F00001E22FFF7B2FB019890F83E0040F24851D4
:100F1000C2F200410870FFF71BFFFFE708B080BD79
:100F200080B586B040F26861C2F20001AA20087064
:100F300000208DF81700FFE79DF81700032839DC23
:100F4000FFE79DF8171044F2F470C2F2014000EB85
:100F5000411090ED061A90ED0A0A30EE410A8DED2F
:100F6000040A04A80390039800789DF8172040F223
:100F70006861C2F2000101EB820250700398407870
:100F80009DF8172001EB82029070039880789DF8FD
:100F9000172001EB8202D0700398C0789DF81720CB
:100FA00001EB82010871FFE79DF8170001308DF811
:100FB0001700C1E700208DF80B00FFE79DF80B003C
:100FC000032821DCFFE79DF80B3044F2F470C2F2F5
:100FD0000140143000EB43118A6940F26861C2F2AB
:100FE000000101EB43035A749DF80B2000EB421003
:100FF0008069000A01EB42018874FFE79DF80B004D
:1010000001308DF80B00D9E744F63820C2F20140D8
:10101000D0F8A0100191406E019001A800900098B6
:10102000007840F26861C2F200014876009840788A
:10103000887600988078C8760098C078087740F263
:10104000EF02C2F200021068D2F803200A62C1F86F
:101050001D0040F2EC00C2F20000007881F83E0072
:10106000FE2081F83F0040F24040C2F200004022E2
:101070000EF0E2FD06B080BD80B540F60000C5F67A
:1010800002000122114607F0FBFA80BD00000000BB
:1010900080B540F60000C5F602000121002207F0ED
:1010A000EFFA80BD00000000704700000000000063
:1010B00080B540F60000C5F602000821012207F0C5
:1010C000DFFA80BD0000000080B540F60000C5F6E4
:1010D00002000821002207F0D3FA80BD00000000C2
:1010E000704700000000000080B582B0ADF8060037
:1010F000FFE7BDF80600411EADF8061028B1FFE776
:101100004FF47A7000F004F8F3E702B080BD0000FD
:1011100086B0ADF816000020049003900290019074
:1011200000904EF21400CEF2000000680090BDF86E
:101130001600C0EB0010400104904EF21800CEF2F1
:10114000000000680390FFE74EF21800CEF20000A6
:10115000006802900298039988421ED0FFE7029827
:101160000399884207D2FFE703980299411A019830
:101170000844019008E000980299401A039901443C
:10118000019808440190FFE70298039001980499A0
:10119000884201D3FFE701E0FFE7D5E706B07047DB
:1011A00080B582B000208DF80700FFF77DFFFFF7C4
:1011B00097FF21F0E9FD01469DF8070008438DF8EF
:1011C000070021F0A9FE01469DF8070008438DF8AD
:1011D00007009DF8070002B080BD0000000000007D
:1011E00080B588B007900691059200200090049089
:1011F0000390FFF74DFF922000F00AF9122003A997
:101200000191062200F0CCF8FFF736FF9DF80C00A4
:101210009DF80D1040EA0120ADF80A00BDF90A0062
:1012200000EE100AB8EEC00A40F2A400C2F200407C
:1012300090ED001A20EE010A069981ED000A9DF852
:101240000E109DF80F2041EA0221ADF80A10BDF9F9
:101250000A1000EE101AB8EEC00A90ED001A20EE47
:10126000010A069981ED010A9DF810109DF81120E0
:1012700041EA0221ADF80A10BDF90A1000EE101A79
:10128000B8EEC00A90ED001A20EE010A069880ED33
:10129000020AFFF719FF00980199082200F080F870
:1012A000FFF706FF9DF80C000F2844D1FFE79DF8DB
:1012B0000E009DF80F1040EA0120ADF80A00BDF9BC
:1012C0000A0000EE100AB8EEC00A40F20400C2F2B2
:1012D000000090ED001A20EE010A079981ED000A46
:1012E0009DF810109DF8112041EA0221ADF80A1076
:1012F000BDF90A1000EE101AB8EEC00A90ED001AFF
:1013000020EE010A079981ED010A9DF812109DF85F
:10131000132041EA0221ADF80A10BDF90A1000EECF
:10132000101AB8EEC00A90ED001A20EE010A0798D4
:1013300080ED020AFFE7FFF7ABFEA22000F068F89D
:10134000222003A9022200F02BF8FFF795FE9DF85A
:101350000C009DF80D10C00040EA5110ADF80A00D5
:10136000BDF90A00B0F5806F07DBFFE7BDF80A00A2
:10137000A0F50060ADF80A00FFE7BDF90A0000EE35
:10138000100AB8EEC01AB4EE002AB3EE070AA1EEB6
:10139000020A059880ED000A08B080BD0000000038
:1013A00080B584B08DF80F0002918DF807209DF86C
:1013B0000F0040F0800000F02BF8FFE79DF80700D9
:1013C00070B1FFE7552000F023F8029908700298E9
:1013D000013002909DF8070001388DF80700EDE715
:1013E00004B080BD0000000080B582B08DF8070019
:1013F00000919DF8070040F0800000F009F85520AA
:1014000000F006F80099087002B080BD00000000EE
:1014100080B582B08DF8070069464FF47A70086095
:1014200045F68C20C2F201400DF107010DF10602D4
:1014300001230BF049FD9DF8060002B080BD0000BD
:1014400080B582B08DF807008DF806109DF8070072
:10145000FFF7DEFF9DF80600FFF7DAFF02B080BD60
:1014600080B582B08DF8060000919DF80600042832
:101470000AD8FFE79DF8061040F20010C2F2000003
:1014800050F8210020B9FFE700208DF8070012E096
:1014900007F00EF99DF8062040F20011C2F200019B
:1014A00051F82210411A009A0020914298BF012061
:1014B0008DF80700FFE79DF8070002B080BD00002F
:1014C00080B582B08DF807009DF8070004280BD87E
:1014D000FFE707F0EDF89DF8072040F20011C2F297
:1014E000000141F82200FFE702B080BD00000000CB
:1014F00080B582B045F61430C2F20140042101915A
:101500000CF06EFE40F26C50C2F2000000903221EE
:1015100012F006FB0098019A45F6F431C2F201413F
:1015200012F0BAFA02B080BD80B584B003908DF895
:101530000B1000200190FFE701989DF80B108842E6
:101540000FDAFFE70398019900EB810140F26C503C
:10155000C2F2000012F0B0FAFFE7019801300190EA
:10156000EAE740F22050C2F2004000680222002365
:10157000194623F04DFB04B080BD000000000000C0
:10158000FFE7FEE70000000080B586B005900491FB
:10159000059800680290A0F20120022806D3FFE718
:1015A000029840F20321884232D053E00598006847
:1015B00001388DF80F009DF80F0045F6E042C2F2A9
:1015C0000142C42110FB0120CC30DDF810C09CF892
:1015D00000E09CF801109CF802309CF8032041EADE
:1015E0000E2142EA03229CF804E09CF8053043EA0D
:1015F0000E239CF906C0EE46CEF800C01BB209B21D
:1016000012B200F051FB9DF80F00FFF759FF22E0E6
:10161000049B93F800C059789A78D87841EA0C2155
:1016200040EA022293F804C0587940EA0C2093F96A
:101630000630EC46CCF8003003B245F6E040C2F28A
:101640000140083009B212B200F02EFB0220FFF771
:1016500037FF00E0FFE706B080BD0000000000009B
:1016600080B584B00390029103980068019011281E
:1016700006D0FFE7019840F2052188420DD02FE007
:10168000029944F63820C2F2014000F5747021F04E
:101690004BFD0420FFF714FF23E0029B93F800C0EA
:1016A00059789A78D87841EA0C2140EA022293F8D6
:1016B00004C0587940EA0C2093F90630EC46CCF887
:1016C000003003B244F63820C2F2014000F5437006
:1016D00009B212B200F0E8FA0320FFF7F1FE00E0D1
:1016E000FFE704B080BD000082B001900091019836
:1016F0000068B0F5407F01D1FFE700E0FFE702B0EE
:10170000704700000000000080B592B000200890F3
:101710000A900B90022105910C91012106910D91E7
:101720000E900F9045F2C830C2F2014002900AA913
:10173000049105F0DDFB059A089B029869460B6051
:10174000114605F061FC0699089A029805F08CFA9A
:10175000089A02984FF00071079105F085FA069AF1
:101760000298114605F070FB029806F049FD0499B5
:1017700045F26840C2F20140039005F0B9FB059ABA
:10178000089B039869460B60114605F03DFC069ADC
:101790000398114605F058FB0699089A039805F03E
:1017A00063FA0799089A039805F05EFA039806F021
:1017B00027FD049945F20850C2F20140099005F056
:1017C00097FB059A089B099869460B60114605F03E
:1017D0001BFC069A0998114605F036FB0699089AF3
:1017E000099805F041FA0799089A099805F03CFA1A
:1017F000099806F005FD12B080BD00000000000051
:1018000084B08DF80F000291ADF806209DF80F000E
:101810000146009123281DD80099DFE801F012133A
:101820001415161B1B1B1B1B1B1B1B1B1B1B1B1B1A
:101830001B1B1B1B1B1B1B1B1B1B1B1B1B1B1718FF
:10184000191A08E007E006E005E004E003E002E022
:1018500001E000E0FFE7002004B070470000000056
:10186000002070470000000080B582B044F60C7084
:10187000C2F20140009041F21E41C2F2004100223A
:10188000019216F011FE009840F61E41C2F200418E
:1018900016F0EAFD019802B080BD000000000000D3
:1018A00080B584B0039002910298006840F26851BC
:1018B000C2F2000108600398029909681AF01CF846
:1018C000039944F60C70C2F20140019016F0CCFD71
:1018D000019816F06DFD002004B080BD00000000EE
:1018E00083B0029001918DF8032000208DF8020052
:1018F0009DF9020003B0704780B586B00490ADF842
:101900000E1000208DF80D0044F60C70C2F201405C
:10191000D0F8BC0202900298D0F8140220B1FFE780
:1019200001208DF8170013E00499BDF80E2044F64D
:101930000C70C2F20140019016F0B6FD019816F04D
:10194000BFFE8DF80D009DF80D008DF81700FFE724
:101950009DF8170006B080BD80B584B044F2F470E5
:10196000C2F2014002900021C4F2A0310160416046
:101970000021C4F2E62181600021C16001610021E3
:10198000CCF2AA21C0F83C1140F20A51A0F8401153
:1019900042F2D731CCF2F921416143F65201C4F24F
:1019A0005231416348F28F21C4F24331416548F21C
:1019B0000001C4F278314167BC309FED180A8DED0B
:1019C000000ADFED170ACDED030A12F0B5FD9DED1B
:1019D000000A0298DDED030ACC3012F0ADFD02984A
:1019E000DDED030AFC309FED0F0A8DED010A12F0C8
:1019F000A3FD9DED010A0298DDED030ADC3012F033
:101A00009BFD0298DDED030AEC309FED070A12F012
:101A100093FD00F00DF804B080BD00BF000020422F
:101A200000000000CDCCCC3D9A99193E000000008A
:101A300080B582B044F2F470C2F2014000F58670C5
:101A40000190B5EE000ADFED080AB1EE081AF0EEDB
:101A5000001AB2EE0E2A11F0FBFE01989FED030A68
:101A600011F016FF02B080BD00000000CDCCCC3DCF
:101A700081B044F2F470C2F2014090F848010128AC
:101A800010D0FFE740F21860C2F20000407A02284E
:101A900008D1FFE744F2F471C2F20141012081F85C
:101AA000480119E044F2F470C2F2014090F8480194
:101AB000012810D1FFE740F21860C2F20000407A1E
:101AC000032808D1FFE744F2F471C2F2014100207B
:101AD00081F84801FFE7FFE740F21860C2F200001A
:101AE000807A0146009101280CD0FFE70098032876
:101AF00010D1FFE744F2F471C2F20141012081F8F4
:101B00004C0108E044F2F471C2F20141002081F876
:101B10004C01FFE7FFE744F2F470C2F2014090F895
:101B20004C01012819D1FFE740F2D060C2F2000059
:101B300090F8510040B9FFE744F2F471C2F201415C
:101B4000012081F8480107E044F2F471C2F201413A
:101B5000002081F84801FFE7FFE701B0704700006F
:101B600080B582B044F2F470C2F201400090BC3003
:101B700012F0F6FC0098CC3012F0F2FC0098FC3029
:101B800012F0EEFC12F054FD009890ED000A90ED7A
:101B9000011A30EE010AB5EE001A20EE010A8DEDB1
:101BA000010A90ED020A9FED151A20EE010A80ED60
:101BB000280AD0F8A010C0F8A4109DED011A9FEDDE
:101BC000100A80EE010A9FED0F1A80EE010A9FEDC8
:101BD0000E1A80EE010A30EE000A9FED0C1A20EE7C
:101BE000010A90ED021A20EE010A9FED091A80EE1B
:101BF000010A80ED2A0A02B080BD00BFC3905442A2
:101C00000000FA45000070423C3C7C41DB0F49403B
:101C1000F4FDB43F0000000080B584B003908DED6A
:101C2000020ACDED010A8DED001A039850309DEDAA
:101C3000020ADDED010A9DED001AB1EE411A11F024
:101C400017FD039890ED190ADDED000A11F02CFE46
:101C50000399C869C1F8800004B080BD000000008D
:101C600087B006908DED050ACDED040A8DED031ABF
:101C7000CDED021A8DED012ACDED002A05980699C9
:101C8000086004980699486003980699886002984D
:101C90000699C86201980699886200980699486278
:101CA00007B070470000000080B583B084460598F7
:101CB000CDF808C0ADF80610ADF80420ADF802303C
:101CC0008DF80100BDF8060002990880BDF80400F7
:101CD00002994880BDF80200029988809DF80100B1
:101CE0000299887103B080BD80B540F25010C2F2F5
:101CF000000002F081FE80BD80B545F2E810C2F21E
:101D0000014002F079FE80BD80B545F26020C2F24C
:101D1000014002F071FE80BD80B540F24020C2F269
:101D2000000002F069FE80BD80B540F2C810C2F22A
:101D3000000002F061FE80BD80B540F23030C2F29A
:101D4000000002F059FE80BD80B545F25030C2F26D
:101D5000014002F051FE80BD80B545F2D820C2F2AC
:101D6000014002F049FE80BD80B540F2B820C2F2C9
:101D7000000002F041FE80BD83B00290029801682D
:101D800001201022C4F202029142009000F0A380D0
:101D9000FFE70298016801202822C4F20202914262
:101DA000009000F09880FFE702980168012040222F
:101DB000C4F202029142009000F08D80FFE7029889
:101DC000016801205822C4F202029142009000F002
:101DD0008280FFE70298016801207022C4F20202AB
:101DE0009142009077D0FFE7029801680120882295
:101DF000C4F20202914200906DD0FFE702980168A0
:101E00000120A022C4F202029142009063D0FFE7B9
:101E1000029801680120B822C4F2020291420090A7
:101E200059D0FFE702980168012040F21042C4F245
:101E30000202914200904ED0FFE702980168012013
:101E400040F22842C4F202029142009043D0FFE7E0
:101E500002980168012040F24042C4F2020291421D
:101E6000009038D0FFE702980168012040F2584204
:101E7000C4F20202914200902DD0FFE7029801685F
:101E8000012040F27042C4F202029142009022D03E
:101E9000FFE702980168012040F28842C4F2020282
:101EA0009142009017D0FFE702980168012040F2AC
:101EB000A042C4F20202914200900CD0FFE70298C7
:101EC00000684FF64831CBF6FD710844B0FA80F057
:101ED00040090090FFE70098C00740B3FFE7029871
:101EE000007810384AF6AB21CAF6AA21A0FB0110EF
:101EF00000090190019800F0070146F21450C0F665
:101F00000200405C0299C8650198042807D3FFE7E6
:101F100002990868042262F30900886506E00299C4
:101F2000086840F2FF3290438865FFE705E00299B8
:101F3000086820F0FF008865FFE70298806D03B015
:101F4000704700000000000084B003900398006810
:101F5000019003980168012045F20842C5F602028B
:101F6000914200904ED0FFE703980168012045F2AE
:101F70001C42C5F602029142009043D0FFE703984D
:101F80000168012045F23042C5F6020291420090FC
:101F900038D0FFE703980168012045F24442C5F6B6
:101FA0000202914200902DD0FFE7039801680120C2
:101FB00045F25842C5F602029142009022D0FFE756
:101FC00003980168012045F26C42C5F60202914275
:101FD000009017D0FFE703980168012045F2804286
:101FE000C5F60202914200900CD0FFE7039800680A
:101FF0004AF66C31CAF2FD710844B0FA80F040092B
:102000000090FFE70098C00710B3FFE7039800783F
:1020100008384CF6CD41CCF6CC41A0FB01100009AC
:102020000290029945F60000C5F6020000EB81001F
:1020300003990866039945F68000C5F602004866D4
:10204000029800F01F01012088400399886635E05E
:102050000398007810384AF6AB21CAF6AA21A0FBF3
:10206000011000090290019840F2B841C4F2020147
:1020700088420CD8FFE7019840F21041C4F20201F7
:10208000884204D3FFE7029808300290FFE70299E4
:1020900040F60000C4F2020000EB810003990866DC
:1020A000039940F68000C4F202004866029800F0EE
:1020B0001F010120884003998866FFE704B070473C
:1020C00083B002900298007901900198002800F0F6
:1020D0008A80FFE70198082800F28580FFE70298D0
:1020E0000168012045F20842C5F6020291420090C3
:1020F0004ED0FFE702980168012045F21C42C5F668
:1021000002029142009043D0FFE70298016801204B
:1021100045F23042C5F602029142009038D0FFE706
:1021200002980168012045F24442C5F6020291423C
:1021300000902DD0FFE702980168012045F2584237
:10214000C5F602029142009022D0FFE70298016892
:10215000012045F26C42C5F602029142009017D070
:10216000FFE702980168012045F28042C5F60202AD
:10217000914200900CD0FFE7029800684AF66C315B
:10218000CAF2FD710844B0FA80F040090090FFE700
:102190000098C00780B1FFE7019945F6FC00C5F63D
:1021A000020000EB81000299C866029945F64010D2
:1021B000C5F6020008670FE0019940F6FC00C4F282
:1021C000020000EB81000299C866029940F64010B7
:1021D000C4F202000867FFE70198411E0120884011
:1021E00002994867FFE703B0704700000000000055
:1021F00085B0049000208DF80F000498806918BB0A
:10220000FFE70498806A029003281BD80299DFE850
:1022100001F0020D0218049890F82F00C00720B1B9
:10222000FFE701208DF80F00FFE70CE00498C06A7B
:10223000B0F1C07F04D1FFE701208DF80F00FFE768
:1022400001E000E0FFE747E004988069B0F5005F37
:1022500026D1FFE70498806A019003281ED80199CF
:10226000DFE801F00206021101208DF80F0016E0F0
:10227000049890F82F00C00720B1FFE701208DF8E7
:102280000F00FFE70BE00498C06AB0F1C07F04D1F3
:10229000FFE701208DF80F00FFE700E0FFE71AE0FD
:1022A0000498806A0090032804D3FFE7009803286D
:1022B00004D00EE001208DF80F000BE0049890F898
:1022C0002F00C00720B1FFE701208DF80F00FFE7C6
:1022D00000E0FFE7FFE7FFE79DF80F0005B070475C
:1022E00089B008900791069205930898806D049034
:1022F0000898806D03900898016801201022C4F2AC
:1023000002029142029000F00381FFE70898016801
:1023100001202822C4F202029142029000F0F880CB
:10232000FFE70898016801204022C4F202029142AE
:10233000029000F0ED80FFE7089801680120582224
:10234000C4F202029142029000F0E280FFE7089896
:10235000016801207022C4F202029142029000F052
:10236000D780FFE70898016801208822C4F20202A2
:102370009142029000F0CC80FFE7089801680120AC
:10238000A022C4F202029142029000F0C180FFE755
:10239000089801680120B822C4F20202914202901A
:1023A00000F0B680FFE708980168012040F2104273
:1023B000C4F202029142029000F0AA80FFE708985E
:1023C0000168012040F22842C4F2020291420290C8
:1023D00000F09E80FFE708980168012040F240422B
:1023E000C4F202029142029000F09280FFE7089846
:1023F0000168012040F25842C4F202029142029068
:1024000000F08680FFE708980168012040F27042E2
:10241000C4F20202914202907AD0FFE70898016864
:10242000012040F28842C4F20202914202906FD031
:10243000FFE708980168012040F2A042C4F20202BE
:102440009142029064D0FFE708980168012040F2B1
:10245000B842C4F202029142029059D0FFE70898B4
:102460000168012045F20842C5F60202914202903D
:102470004ED0FFE708980168012045F21C42C5F6DE
:1024800002029142029043D0FFE7089801680120C0
:1024900045F23042C5F602029142029038D0FFE781
:1024A00008980168012045F24442C5F602029142B3
:1024B00002902DD0FFE708980168012045F25842AC
:1024C000C5F602029142029022D0FFE70898016807
:1024D000012045F26C42C5F602029142029017D0EB
:1024E000FFE708980168012045F28042C5F6020224
:1024F000914202900CD0FFE7089800684AF66C31D0
:10250000CAF2FD710844B0FA80F040090290FFE77A
:102510000298C00770B1FFE70898416E806E48606E
:102520000898C06E28B1FFE70898016F406F4860B7
:10253000FFE7FFE70898016801201022C4F20202B9
:102540009142019000F0A380FFE708980168012004
:102550002822C4F202029142019000F09880FFE725
:102560000898016801204022C4F2020291420190C1
:1025700000F08D80FFE70898016801205822C4F21E
:1025800002029142019000F08280FFE70898016802
:1025900001207022C4F202029142019077D0FFE73D
:1025A0000898016801208822C4F202029142019039
:1025B0006DD0FFE7089801680120A022C4F2020252
:1025C0009142019063D0FFE7089801680120B8228A
:1025D000C4F202029142019059D0FFE708980168C5
:1025E000012040F21042C4F20202914201904ED00A
:1025F000FFE708980168012040F22842C4F2020275
:102600009142019043D0FFE708980168012040F211
:102610004042C4F202029142019038D0FFE708988C
:102620000168012040F25842C4F202029142019036
:102630002DD0FFE708980168012040F27042C4F2F3
:1026400002029142019022D0FFE708980168012020
:1026500040F28842C4F202029142019017D0FFE793
:1026600008980168012040F2A042C4F2020291429F
:1026700001900CD0FFE7089800684FF64831CBF680
:10268000FD710844B0FA80F040090190FFE701981D
:10269000C00750B3FFE70898C06D00F01F013F204E
:1026A00088400499886008980168086820F48020B0
:1026B000086005980899096848600898806840286B
:1026C00009D1FFE706980899096888600798089972
:1026D0000968C86008E00798089909688860069842
:1026E00008990968C860FFE782E00898016801203E
:1026F00045F20842C5F60202914200904ED0FFE733
:1027000008980168012045F21C42C5F60202914278
:10271000009043D0FFE708980168012045F230425D
:10272000C5F602029142009038D0FFE70898016890
:10273000012045F24442C5F60202914200902DD09C
:10274000FFE708980168012045F25842C5F60202E9
:102750009142009022D0FFE708980168012045F2DD
:102760006C42C5F602029142009017D0FFE708982C
:102770000168012045F28042C5F6020291420090B4
:102780000CD0FFE7089800684AF66C31CAF2FD7178
:102790000844B0FA80F040090090FFE70098C007B5
:1027A00020B3FFE70898C06D00F01F0101208840AA
:1027B00003994860059808990968486008988068F6
:1027C000402809D1FFE706980899096888600798AA
:1027D00008990968C86008E007980899096888603E
:1027E000069808990968C860FFE700E0FFE7FFE77F
:1027F00009B070470000000080B584B003900291DA
:1028000003990878497840EA01206FF3DF200299A4
:10281000088002990888A0F58060088003994878AC
:102820008978C00840EA41106FF3DF2002994880A0
:1028300002994888A0F58060488003998878CA7812
:102840000979800940EA820040EA81206FF3DF20A5
:102850000299888002998888A0F580608880039911
:1028600008794979400840EAC1106FF3DF200299E6
:10287000C8800299C888A0F58060C8800298B0F925
:10288000000000EE100AB8EEC00ADFED3F0ACDED01
:10289000010A00F0C1F9DDED010ABDEEC00A10EE3B
:1028A000100A029908800298B0F9020000EE100A9E
:1028B000B8EEC00A00F0B0F9DDED010ABDEEC00AC5
:1028C00010EE100A029948800298B0F9040000EE58
:1028D000100AB8EEC00A00F09FF9DDED010ABDEE66
:1028E000C00A10EE100A029988800298B0F906001A
:1028F00000EE100AB8EEC00A00F08EF9BDEEC00A74
:1029000010EE100A0299C8800299087A887202991A
:10291000487AC8720398407980090299087203982E
:102920004079C0F301100299487203998879C979F6
:1029300040EA0120029988810399087A497A40EA9D
:1029400001200299C8810399887AC97A40EA012056
:10295000029908820398007B029988740398407B4F
:102960000299C8740399887BC97B40EA01200299C7
:1029700088820399087C497C40EA0120A0F58060A8
:102980000299C88204B080BD0000484200000000E7
:1029900082B0019000910198008800990880019808
:1029A0004088009948800198808800998880019823
:1029B000C0880099C8800198007A009948720198EF
:1029C000407A009988720198807A0099487301983A
:1029D000C07A0099887301988089009908820198CB
:1029E000C089009948820198008A009988820198DC
:1029F000807C009988750198C07C0099C875019801
:102A0000808A009908830198C08A0099488302B09F
:102A1000704700000000000081B041F20400CEF2D7
:102A2000000000680090009840F27801C2F20001B6
:102A30000968884208D2FFE740F22851C2F20041FB
:102A4000086801300860FFE7009840F27801C2F2A0
:102A50000001086001B0704780B582B000F05CF8FA
:102A600040F2D471C2F20041086843F60952424371
:102A700088884FF47A73584300EB8210C988084461
:102A80000021019100900098019902B080BD0000E2
:102A900081B000904EF6FC51CEF20001086840F083
:102AA0008070086041F20401CEF20001002008604D
:102AB00041F20002CEF20002116841F00101116002
:102AC000009944F24022C0F20F024A4340F26801EA
:102AD000C2F200010A600A6844F6D353C1F26203ED
:102AE000A2FB0332920940F22453C2F200431A605F
:102AF00009684DF68362C4F21B32A1FB0221890CE6
:102B000040F26C02C2F20002116040F22851C2F29F
:102B10000041086001B07047B0B586B041F20400D2
:102B2000CEF2000000680590FFF776FF40F22850D3
:102B3000C2F2004001680598002302934FF0FF3C69
:102B40001A46E1FB0C0240F27001C2F20001009152
:102B50004A6008600868496840F26804C2F20004EC
:102B60002268FDF7CBFC029B02468C46009940F29E
:102B70003050C2F20040C0F804C00260D1F800C07A
:102B80004968D0F800E042682468AEFB04E502FB27
:102B90000452BCEB0E0C61EB020240F28001C2F267
:102BA00000010391C1F800C04A60006840F2D4728D
:102BB000C2F20042049210600868496840F2245250
:102BC000C2F2004201921268FDF798FCDDF804C0E1
:102BD000029B049A0146039891800168406892889C
:102BE000DCF800C002FB0CF28A1A60F1000040F22F
:102BF0003851C2F200410A6048600868496840F2F2
:102C00006C02C2F200021268FDF778FC0499C880D9
:102C100006B0B0BD0000000083B08DED010ACDED1F
:102C2000000A9DED010A9DED001AB1EE411AB4EEC5
:102C3000410AF1EE10FA0DDDFFE79DED010A9DED71
:102C4000001AB4EE410AF1EE10FA03DAFFE70020B1
:102C5000029002E001980290FFE79DED020A03B0A6
:102C600070470000000000007047000000000000F6
:102C700080B582B08DF807009DF8070004280FD0BA
:102C8000FFE79DF8070005280AD0FFE79DF8070039
:102C9000062805D0FFE79DF80700072801D1FFE7C8
:102CA000FFE79DF807000A2818D1FFE740F25860B7
:102CB000C2F200000168013101600068022801D8F9
:102CC000FFE70BE040F25860C2F2000000680B28FA
:102CD00001D3FFE7FFE7FDF75BFFFFE702B080BD31
:102CE00081B08DF8030001B07047000000000000C3
:102CF00080B586B0642102910023059318461A46D8
:102D000000F04EF80299059B012003901A4600F04E
:102D100047F80299059B02201A4600F041F80299F3
:102D2000059B03201A4600F03BF8059B0420C821B0
:102D300001911A4600F034F80199059B05201A46C6
:102D400000F02EF80199059B06201A4600F028F89D
:102D50000199059B07201A4600F022F80299059B6D
:102D600008201A4600F01CF80398059B44F6481109
:102D7000C2F2014181F8A8000A204FF4FA710491CF
:102D80001A4600F00DF80499059B41F28132C0F615
:102D900001020B2000F004F806B080BD0000000026
:102DA00084B08DF80F0002910192009302989DF873
:102DB0000F1001EB810244F64811C2F2014141F8C3
:102DC00022009DF80F0000EB800001EB8002002044
:102DD000107201989DF80F2002EB820201EB820233
:102DE000D06000989DF80F2002EB820201EB820177
:102DF000086104B07047000081B0EFF3108072B634
:102E00000090FFE7FEE7000044F60C01C5F6020162
:102E1000086840F002000860FFE744F60400C5F6C9
:102E2000020000688004002801D4FFE7F5E770473E
:102E300080B545F2C830C2F2014004F01DFB80BDF0
:102E400080B545F2C830C2F2014004F015FB80BDE8
:102E500080B545F26840C2F2014004F00DFB80BD30
:102E600080B545F26840C2F2014004F005FB80BD28
:102E700080B545F20850C2F2014004F0FDFA80BD71
:102E800080B545F20850C2F2014004F0F5FA80BD69
:102E900084B002900298406B009002980068D0F8CD
:102EA00084004FF6FC718843009940EA8100029942
:102EB0000968C1F8840002980068D0F8840020F402
:102EC0007F00029A1168926B40EA0240C1F88400C8
:102ED0000298816B00980844009002980068D0F82E
:102EE00088006FF38F00009940EA81000299096819
:102EF000C1F8880002980068D0F8880020F4FE002D
:102F0000029A1168D26B40EA0240C1F88800029828
:102F1000C16B009800EB4100009002980068D0F867
:102F2000A0006FF38F00009940EA810002990968C0
:102F3000C1F8A00002980068D0F8A00020F4FE00BC
:102F4000029A1168126C40EA0240C1F8A00002998E
:102F5000086C496C009A00FB012000900298006800
:102F6000D0F8B0006FF38F00009940EA8100029919
:102F70000968C1F8B00002980068D0F8B00020F4E9
:102F8000FE00029A1168926C40EA0240C1F8B0005B
:102F90000299886CC96C009A00FB0120009002988D
:102FA0000068D0F8AC006FF38F00009940EA810010
:102FB00002990968C1F8AC000299086D496D009A40
:102FC00000FB0120009002980068D0F8F0006FF339
:102FD0008F00009940EA810002990968C1F8F00069
:102FE00002980068D0F8F00020F47C10029A116872
:102FF000926D40EA0240C1F8F0000298816D00989D
:1030000000EB4100009002980068D0F8C0006FF318
:103010008F00009940EA810002990968C1F8C00058
:1030200002980068D0F8C00020F47C10029A116861
:10303000D26D40EA0240C1F8C00002980068D0F8A2
:10304000C00020F07C50029A1168126E40EA0260C3
:10305000C1F8C00002994A6B4AF60040C4F2000071
:1030600000EB8200C86602998A6BC86E00EB820092
:1030700008670299CA6B086F00EBC20048670299A3
:103080000A6C4B6C486F5A4300EB820088670299C8
:103090008A6CCB6C886F5A4300EB8200C867029938
:1030A0000A6D4B6DC86F5A4300EB8200C1F8800077
:1030B00002998A6DD1F8800000EBC200C1F884004B
:1030C0000299CA6D8B6ED1F884005A4300EB8200DE
:1030D000C1F8880002990A6E8B6ED1F888005A43B5
:1030E00000EB8200C1F890000298D0F890004DF2F9
:1030F000FD31C4F2000188420FD3FFE70299D1F8F5
:103100009C0040F02000C1F89C000299032081F847
:10311000980001208DF80F0017E00298C06E019012
:10312000FFE701980299D1F89010884208D2FFE792
:10313000019900200860FFE7019804300190F0E752
:10314000FFE700208DF80F00FFE79DF80F0004B0A7
:10315000704700000000000088B0079006910592BB
:1031600004930698406848B9FFE7069801688268AA
:103170000069104340EA8140039009E00698016825
:10318000826800691043084340F080400390FFE7E5
:103190000698D0F820C0C16842698369C06940EAD6
:1031A0000C601843104340EA014002900798826E79
:1031B000D0F884000499514300EB810001900398FA
:1031C0000199086001980430019002980199086003
:1031D00001980430019000200090FFE700980699C4
:1031E000CA6846F20451C0F60201895C88420DD2D9
:1031F000FFE705980099405801990860019804304C
:103200000190FFE7009804300090E7E708B07047AE
:1032100040F2E850C2F2004090ED690A70470000A9
:1032200040F2E850C2F2004090ED680A704700009A
:1032300080B584B04EF60000C1F6F17000680390CE
:103240004EF60400C1F6F170006802904EF60800D8
:10325000C1F6F17000680190019903980844039049
:10326000039888B1FFE7039840F23001C2F20001F1
:103270000091023108220EF027F8009902981231CD
:1032800004220EF021F8FFE704B080BD000000002A
:1032900040F2E850C2F2004090ED6A0A7047000028
:1032A00080B544F63821C2F201410020C4F2082062
:1032B000C1F860010020CCF2A010C1F86401002028
:1032C000C1F84801D1F84821C1F8582108600A68BE
:1032D0008A61C1F8A400D1F8A400C1F8BC0000F0D4
:1032E00003F880BD0000000080B58AB044F63820A5
:1032F000C2F20140059000F5C870B1EE080ADFED9A
:103300004B0ACDED010A9FED4A1ADFED4A1A9FEDF7
:103310004A2A8DED042A10F09BFA9DED042A0598A7
:1033200000F5F0709FED450ADFED450ACDED090A85
:103330009FED441ADFED441ADFED442AFEF790FCBE
:10334000059800F5DC709FED420ADFED420ABAEE07
:10335000001ADFED411AB2EE042A8DED032A10F0B7
:1033600077FA9DED012A059800F5B4709FED3B0AB0
:103370008DED070AB0EE001AF0EE420AF0EE421AA6
:1033800010F066FA9DED042A059820309FED340A6E
:10339000DFED340AB0EE0C1ADFED331ACDED021A70
:1033A00010F056FA059870309FED300ADFED300AC4
:1033B0009FED301ADFED301A9FED302ADFED302A15
:1033C000FEF74EFCDDED021A059848309FED2D0A00
:1033D0008DED060AF6EE000A9FED2B1A9FED2B2AC3
:1033E00010F036FA9DED031ADDED041A0598C4308D
:1033F0009FED270ADFED270A9FED272A8DED082A8A
:1034000010F026FA05989DED061ADDED071A9DEDE0
:10341000082ADDED092A00F58A709FED200ADFED0C
:10342000200AFEF71DFC0AB080BD00BF00000000AE
:10343000CDCCCC3E0000FA4300C0DA4500009642F5
:103440003333333F0000F042000048439A99193F5C
:10345000CDCC4CBF6F1283BA6666A63F0000C8424F
:103460009A99B9400AD7A33C00007A44000014425C
:103470008FC2F53C00002D4300002F440000FA44A9
:103480006666E63E0000964300409C4500606A4642
:1034900000004842CDCCCC3D0060EA460000164317
:1034A000CDCC4C3F0000000083B040F21861C2F266
:1034B0000001B1F9000000EE100AB8EEC00B9FED5C
:1034C0003A1B20EE010B9FED3A1B80EE012B44F6D8
:1034D0003820C2F20140029090ED2F0AB7EEC00AE8
:1034E00030EE020BB7EEC00B80ED2F0AD0F8BC20F7
:1034F0008261B1F9021000EE101AB8EEC00B9FED18
:103500002E2B20EE020B80EE011B90ED560AB7EE3B
:10351000C00A30EE010BB7EEC00B80ED560A90EDFD
:10352000560A90ED591AB4EE410AF1EE10FA09DC90
:10353000FFE744F63820C2F2014090ED590A8DEDC4
:10354000010A24E044F63820C2F2014090ED560A08
:1035500090ED581AB4EE410AF1EE10FA09DBFFE7DC
:1035600044F63820C2F2014090ED580A8DED000A71
:1035700008E044F63820C2F2014090ED560A8DED85
:10358000000AFFE79DED000A8DED010AFFE79DEDC2
:10359000010A44F63820C2F2014080ED560A03B019
:1035A000704700BF00BF00BF333333333333D3BF63
:1035B0000000000000A08440666666666666D63F2E
:1035C00080B586B040F2B840C2F2004090ED000AEB
:1035D0009FED4F3A20EE030A8DED050A9DED051A89
:1035E00044F63821C2F2014191ED2F0A30EE010A72
:1035F00081ED2F0AD1F8BC00886140F29040C2F200
:10360000004090ED000A9FED431A20EE012A40F29F
:103610008050C2F2000090ED000AA2EE030A80ED95
:10362000000A90ED000AB4EE410AF1EE10FA0DDD49
:10363000FFE740F28050C2F2000090ED000A9FEDDB
:10364000361A30EE010A80ED000AFFE740F24C0026
:10365000C2F2000090ED000A8DED000A40F28050A9
:10366000C2F2000090ED000A1FF04AFB9DED001A27
:10367000B0EE402A40F29440C2F2004090ED000AC1
:10368000A1EE020A8DED040A40F20900C2F2000028
:10369000007868B1FFE7049840F28801C2F20001A7
:1036A000086040F20901C2F2000100200870FFE743
:1036B0009DED040A40F28801C2F2000191ED001A6A
:1036C00030EE410A8DED030A9DED040A44F63820E0
:1036D000C2F2014090ED561A30EE410A8DED020A19
:1036E0009DED020A9FED0D1A20EE010A8DED010AF3
:1036F0009DED030A9DED011A30EE011A90ED560A78
:1037000030EE010A80ED560A0498086006B080BDCC
:103710006F12833ADB0FC940DB0FC9C00AD7A33C45
:1037200080B586B040F29C51C2F200418A6944F6ED
:103730003820C2F201400590C0F8B8204A6BC0F8AA
:10374000A82090ED2A0AB7EEC00AB0F90C23A2F621
:10375000962201EE102AB8EEC11B9FED392B8DED9C
:10376000002B21EE021B9FED382B8DED022BA1EEDD
:10377000020BB7EEC00B80ED010A91ED040AB1EE29
:10378000400A80ED550A096BC0F84C1190ED2A0AE9
:1037900090ED2B1A30EE410ADFED2D0A0FF0A4FA5E
:1037A0000598B0EE401A90ED2C0A30EE010A80ED3B
:1037B0002C0AD0ED2C0A90ED2F0A0FF095FA9DED12
:1037C000003B9DED022B059880ED2F0AD0F8A81044
:1037D000C0F8AC1090ED2C0AB7EEC00AB0F90C138B
:1037E000A1F6962101EE101AB8EEC11B21EE031BC3
:1037F000A1EE020BB7EEC00B80ED030A44F2F470A9
:10380000C2F2014090F84C01012815D1FFE740F2C7
:103810001860C2F20000407A02280DD1FFE744F69A
:103820003820C2F2014090ED060A9FED0A1A30EEF0
:10383000010A80ED060AFFE706B080BD00BF00BFA9
:1038400000000000000020BF000000000080764063
:10385000000000000000344280B588B04EF60450ED
:10386000C2F20240049090ED010A44F63820C2F200
:1038700001400590D0ED060A0FF036FA049905983C
:1038800080ED060A90ED060A91ED012A91ED021AEB
:1038900031EE421A30EE010A8DED070A9DED070A5E
:1038A00090ED031A30EE410A8DED060A9DED060AF1
:1038B0009FED3F1AB4EE410AF1EE10FA05DCFFE786
:1038C0009FED3B0A8DED030A18E09DED060A9FED82
:1038D000391AB4EE410AF1EE10FA05DBFFE79FED6D
:1038E000350A8DED020A04E09DED060A8DED020A0F
:1038F000FFE79DED020A8DED030AFFE79DED030A48
:103900008DED060A44F63820C2F2014090ED030A1C
:103910009DED061A30EE010A80ED2F0A4EF6045195
:10392000C2F20241C968C0F8581190ED560A90EDF4
:10393000591AB4EE410AF1EE10FA09DCFFE744F639
:103940003820C2F2014090ED590A8DED010A24E0C1
:1039500044F63820C2F2014090ED560A90ED581A14
:10396000B4EE410AF1EE10FA09DBFFE744F6382025
:10397000C2F2014090ED580A8DED000A08E044F6CD
:103980003820C2F2014090ED560A8DED000AFFE7A3
:103990009DED000A8DED010AFFE79DED010A44F659
:1039A0003820C2F2014080ED560A08B080BD00BF49
:1039B000000034C20000344240F21860C2F200003D
:1039C000B0F91A10002011F5C87FB8BF0120704768
:1039D00080B58AB0089004F06BFE0490089828B96E
:1039E000FFE701208DF8270000F0AABC089890F8A6
:1039F000350002280ED0FFE7089980204865FFE7D0
:103A00000899002081F83400FFE701208DF8270095
:103A100000F096BC0898016801201022C4F202024E
:103A20009142039000F0A380FFE70898016801200D
:103A30002822C4F202029142039000F09880FFE72E
:103A40000898016801204022C4F2020291420390CA
:103A500000F08D80FFE70898016801205822C4F229
:103A600002029142039000F08280FFE7089801680B
:103A700001207022C4F202029142039077D0FFE746
:103A80000898016801208822C4F202029142039042
:103A90006DD0FFE7089801680120A022C4F202025D
:103AA0009142039063D0FFE7089801680120B82293
:103AB000C4F202029142039059D0FFE708980168CE
:103AC000012040F21042C4F20202914203904ED013
:103AD000FFE708980168012040F22842C4F2020280
:103AE0009142039043D0FFE708980168012040F21B
:103AF0004042C4F202029142039038D0FFE7089896
:103B00000168012040F25842C4F20202914203903F
:103B10002DD0FFE708980168012040F27042C4F2FE
:103B200002029142039022D0FFE708980168012029
:103B300040F28842C4F202029142039017D0FFE79C
:103B400008980168012040F2A042C4F202029142AA
:103B500003900CD0FFE7089800684FF64831CBF689
:103B6000FD710844B0FA80F040090390FFE7039824
:103B7000C00780B1FFE708980168086820F01E00C0
:103B8000086008980168486920F08000486108983A
:103B90000068059009E008980168086820F00E00A8
:103BA0000860089800680590FFE708980168012000
:103BB0001022C4F202029142029000F00381FFE75A
:103BC0000898016801202822C4F202029142029062
:103BD00000F0F880FFE70898016801204022C4F255
:103BE00002029142029000F0ED80FFE70898016820
:103BF00001205822C4F202029142029000F0E280B9
:103C0000FFE70898016801207022C4F20202914285
:103C1000029000F0D780FFE7089801680120882211
:103C2000C4F202029142029000F0CC80FFE70898B3
:103C300001680120A022C4F202029142029000F029
:103C4000C180FFE7089801680120B822C4F202028F
:103C50009142029000F0B680FFE7089801680120C9
:103C600040F21042C4F202029142029000F0AA8097
:103C7000FFE708980168012040F22842C4F20202DE
:103C80009142029000F09E80FFE7089801680120B1
:103C900040F24042C4F202029142029000F092804F
:103CA000FFE708980168012040F25842C4F202027E
:103CB0009142029000F08680FFE708980168012099
:103CC00040F27042C4F20202914202907AD0FFE7C1
:103CD00008980168012040F28842C4F20202914231
:103CE00002906FD0FFE708980168012040F2A042DF
:103CF000C4F202029142029064D0FFE70898016882
:103D0000012040F2B842C4F202029142029059D01E
:103D1000FFE708980168012045F20842C5F6020253
:103D2000914202904ED0FFE708980168012045F2C9
:103D30001C42C5F602029142029043D0FFE7089868
:103D40000168012045F23042C5F60202914202901C
:103D500038D0FFE708980168012045F24442C5F6D3
:103D60000202914202902DD0FFE7089801680120DD
:103D700045F25842C5F602029142029022D0FFE776
:103D800008980168012045F26C42C5F60202914292
:103D9000029017D0FFE708980168012045F28042A1
:103DA000C5F60202914202900CD0FFE70898006825
:103DB0004AF66C31CAF2FD710844B0FA80F040094D
:103DC0000290FFE70298C00738B1FFE70898016E3C
:103DD000086820F480700860FFE7089800681021E8
:103DE000C4F20201884200F08180FFE70898006871
:103DF0002821C4F20201884278D0FFE708980068C1
:103E00004021C4F20201884270D0FFE708980068A0
:103E10005821C4F20201884268D0FFE70898006880
:103E20007021C4F20201884260D0FFE70898006860
:103E30008821C4F20201884258D0FFE70898006840
:103E4000A021C4F20201884250D0FFE70898006820
:103E5000B821C4F20201884248D0FFE70898006800
:103E600040F21041C4F2020188423FD0FFE70898B7
:103E7000006840F22841C4F20201884236D0FFE7D0
:103E80000898006840F24041C4F2020188422DD0F7
:103E9000FFE70898006840F25841C4F202018842E6
:103EA00024D0FFE70898006840F27041C4F2020194
:103EB00088421BD0FFE70898006840F28841C4F2AE
:103EC0000201884212D0FFE70898006840F2A04142
:103ED000C4F20201884209D0FFE70898006840F266
:103EE000B841C4F20201884207D1FFE7089801688F
:103EF000086820F00100086006E00898016808687A
:103F000020F001000860FFE7FFE705980068C007A0
:103F1000C8B1FFE704F0CCFB0499401A062811D37E
:103F2000FFE70899202048650899032081F83500AB
:103F3000FFE70899002081F83400FFE701208DF8A1
:103F40002700FDE1E1E70898016801201022C4F292
:103F500002029142019000F0A380FFE708980168F7
:103F600001202822C4F202029142019000F09880C0
:103F7000FFE70898016801204022C4F20202914242
:103F8000019000F08D80FFE7089801680120582219
:103F9000C4F202029142019000F08280FFE708988B
:103FA000016801207022C4F202029142019077D090
:103FB000FFE70898016801208822C4F202029142BA
:103FC00001906DD0FFE7089801680120A022C4F29B
:103FD00002029142019063D0FFE708980168012036
:103FE000B822C4F202029142019059D0FFE708982A
:103FF0000168012040F21042C4F202029142019095
:104000004ED0FFE708980168012040F22842C4F230
:1040100002029142019043D0FFE708980168012015
:1040200040F24042C4F202029142019038D0FFE7D0
:1040300008980168012040F25842C4F202029142FD
:1040400001902DD0FFE708980168012040F27042EE
:10405000C4F202029142019022D0FFE70898016861
:10406000012040F28842C4F202029142019017D02E
:10407000FFE708980168012040F2A042C4F2020262
:10408000914201900CD0FFE7089800684FF6483144
:10409000CBF6FD710844B0FA80F040090190FFE7CB
:1040A0000198C00760B1FFE70898806D07900898F5
:1040B000C06D00F01F013F208840079988600BE029
:1040C0000898806D06900898C06D00F01F010120CF
:1040D000884006994860FFE708980168012010228F
:1040E000C4F202029142009000F00381FFE70898B9
:1040F000016801202822C4F202029142009000F0DF
:10410000F880FFE70898016801204022C4F202020B
:104110009142009000F0ED80FFE7089801680120CF
:104120005822C4F202029142009000F0E280FFE7C0
:104130000898016801207022C4F2020291420090A6
:1041400000F0D780FFE70898016801208822C4F2B8
:1041500002029142009000F0CC80FFE708980168CD
:104160000120A022C4F202029142009000F0C1801E
:10417000FFE7089801680120B822C4F202029142C8
:10418000009000F0B680FFE708980168012040F237
:104190001042C4F202029142009000F0AA80FFE7B0
:1041A00008980168012040F22842C4F202029142BC
:1041B000009000F09E80FFE708980168012040F21F
:1041C0004042C4F202029142009000F09280FFE768
:1041D00008980168012040F25842C4F2020291425C
:1041E000009000F08680FFE708980168012040F207
:1041F0007042C4F20202914200907AD0FFE7089820
:104200000168012040F28842C4F20202914200900B
:104210006FD0FFE708980168012040F2A042C4F285
:1042200002029142009064D0FFE7089801680120E3
:1042300040F2B842C4F202029142009059D0FFE726
:1042400008980168012045F20842C5F60202914231
:1042500000904ED0FFE708980168012045F21C420B
:10426000C5F602029142009043D0FFE7089801682A
:10427000012045F23042C5F602029142009038D04A
:10428000FFE708980168012045F24442C5F60202A2
:10429000914200902DD0FFE708980168012045F277
:1042A0005842C5F602029142009022D0FFE70898DA
:1042B0000168012045F26C42C5F60202914200906D
:1042C00017D0FFE708980168012045F28042C5F643
:1042D0000202914200900CD0FFE7089800684AF66D
:1042E0006C31CAF2FD710844B0FA80F040090090C8
:1042F000FFE70098C007A0B1FFE70898416E806E05
:1043000048600898C06E58B1FFE70898C16E086809
:1043100020F4807008600898016F406F4860FFE7E4
:10432000FFE70899012081F83500FFE70899002090
:1043300081F83400FFE7FFE700208DF82700FFE752
:104340009DF827000AB080BD80B586B0049004981F
:1043500020B9FFE701208DF8170046E3049890F894
:104360003500022807D0FFE7049980204865012026
:104370008DF8170039E30498016801201022C4F277
:1043800002029142029000F0A380FFE704980168C6
:1043900001202822C4F202029142029000F098808B
:1043A000FFE70498016801204022C4F20202914212
:1043B000029000F08D80FFE70498016801205822E8
:1043C000C4F202029142029000F08280FFE704985A
:1043D000016801207022C4F202029142029077D05B
:1043E000FFE70498016801208822C4F2020291428A
:1043F00002906DD0FFE7049801680120A022C4F26A
:1044000002029142029063D0FFE704980168012004
:10441000B822C4F202029142029059D0FFE70498F8
:104420000168012040F21042C4F20202914202905F
:104430004ED0FFE704980168012040F22842C4F200
:1044400002029142029043D0FFE7049801680120E4
:1044500040F24042C4F202029142029038D0FFE79B
:1044600004980168012040F25842C4F202029142CD
:1044700002902DD0FFE704980168012040F27042BD
:10448000C4F202029142029022D0FFE70498016830
:10449000012040F28842C4F202029142029017D0F9
:1044A000FFE704980168012040F2A042C4F2020232
:1044B000914202900CD0FFE7049800684FF6483113
:1044C000CBF6FD710844B0FA80F040090290FFE796
:1044D0000298C007002800F09D80FFE7049904209F
:1044E00081F83500049800681021C4F20201884266
:1044F00000F08180FFE7049800682821C4F20201DF
:10450000884278D0FFE7049800684021C4F2020195
:10451000884270D0FFE7049800685821C4F2020175
:10452000884268D0FFE7049800687021C4F2020155
:10453000884260D0FFE7049800688821C4F2020135
:10454000884258D0FFE704980068A021C4F2020115
:10455000884250D0FFE704980068B821C4F20201F5
:10456000884248D0FFE70498006840F21041C4F246
:10457000020188423FD0FFE70498006840F22841DA
:10458000C4F20201884236D0FFE70498006840F286
:104590004041C4F2020188422DD0FFE70498006830
:1045A00040F25841C4F20201884224D0FFE7049847
:1045B000006840F27041C4F2020188421BD0FFE75C
:1045C0000498006840F28841C4F20201884212D087
:1045D000FFE70498006840F2A041C4F2020188425B
:1045E00009D0FFE70498006840F2B841C4F2020124
:1045F000884207D1FFE704980168086820F00100AD
:10460000086006E004980168086820F0010008606E
:10461000FFE7E5E104980168086820F00E000860F3
:10462000049800681021C4F20201884200F08180E1
:10463000FFE7049800682821C4F20201884278D07C
:10464000FFE7049800684021C4F20201884270D05C
:10465000FFE7049800685821C4F20201884268D03C
:10466000FFE7049800687021C4F20201884260D01C
:10467000FFE7049800688821C4F20201884258D0FC
:10468000FFE704980068A021C4F20201884250D0DC
:10469000FFE704980068B821C4F20201884248D0BC
:1046A000FFE70498006840F21041C4F2020188421A
:1046B0003FD0FFE70498006840F22841C4F20201AD
:1046C000884236D0FFE70498006840F24041C4F2C7
:1046D000020188422DD0FFE70498006840F258415B
:1046E000C4F20201884224D0FFE70498006840F237
:1046F0007041C4F2020188421BD0FFE704980068B1
:1047000040F28841C4F20201884212D0FFE70498C7
:10471000006840F2A041C4F20201884209D0FFE7DC
:104720000498006840F2B841C4F20201884207D1FF
:10473000FFE704980168086820F00100086006E0BF
:1047400004980168086820F001000860FFE70498F9
:10475000016801201022C4F202029142019000F08F
:104760000381FFE70498016801202822C4F20202B5
:104770009142019000F0F880FFE704980168012061
:104780004022C4F202029142019000F0ED80FFE766
:104790000498016801205822C4F20202914201905B
:1047A00000F0E280FFE70498016801207022C4F263
:1047B00002029142019000F0D780FFE7049801685F
:1047C00001208822C4F202029142019000F0CC80C4
:1047D000FFE7049801680120A022C4F2020291427E
:1047E000019000F0C180FFE7049801680120B82221
:1047F000C4F202029142019000F0B680FFE70498F3
:104800000168012040F21042C4F20202914201907C
:1048100000F0AA80FFE704980168012040F22842D6
:10482000C4F202029142019000F09E80FFE70498DA
:104830000168012040F24042C4F20202914201901C
:1048400000F09280FFE704980168012040F258428E
:10485000C4F202029142019000F08680FFE70498C2
:104860000168012040F27042C4F2020291420190BC
:104870007AD0FFE704980168012040F28842C4F230
:104880000202914201906FD0FFE704980168012075
:1048900040F2A042C4F202029142019064D0FFE7CC
:1048A00004980168012040F2B842C4F20202914229
:1048B000019059D0FFE704980168012045F20842B1
:1048C000C5F60202914201904ED0FFE704980168BC
:1048D000012045F21C42C5F602029142019043D0EC
:1048E000FFE704980168012045F23042C5F6020254
:1048F0009142019038D0FFE704980168012045F209
:104900004442C5F60202914201902DD0FFE704987F
:104910000168012045F25842C5F602029142019019
:1049200022D0FFE704980168012045F26C42C5F6E9
:1049300002029142019017D0FFE70498016801201C
:1049400045F28042C5F60202914201900CD0FFE789
:10495000049800684AF66C31CAF2FD710844B0FA56
:1049600080F040090190FFE70198C00728B3FFE7F6
:104970000498016E086820F4807008600498806DC7
:1049800003900498C06D00F01F0101208840039936
:1049900048600498416E806E48600498C06E58B1BB
:1049A000FFE70498C16E086820F4807008600498DE
:1049B000016F406F4860FFE7FFE70499012081F82D
:1049C0003500FFE70499002081F83400FFE70498E0
:1049D000006D20B1FFE70498016D8847FFE7FFE70E
:1049E000FFE700208DF81700FFE79DF8170006B0DD
:1049F00080BD00000000000080B590B00F90002046
:104A00000B9040F25C10C2F20040006848F2B51111
:104A1000C1F64E31A0FB0110800A0A900F98806DFC
:104A200009900F98806D0890099800680E9008987A
:104A300000680D900F98016801201022C4F2020254
:104A40009142079000F0A380FFE70F9801680120D2
:104A50002822C4F202029142079000F09880FFE7FA
:104A60000F98016801204022C4F20202914207908F
:104A700000F08D80FFE70F98016801205822C4F2F2
:104A800002029142079000F08280FFE70F980168D0
:104A900001207022C4F202029142079077D0FFE712
:104AA0000F98016801208822C4F202029142079007
:104AB0006DD0FFE70F9801680120A022C4F2020226
:104AC0009142079063D0FFE70F9801680120B82258
:104AD000C4F202029142079059D0FFE70F98016893
:104AE000012040F21042C4F20202914207904ED0DF
:104AF000FFE70F980168012040F22842C4F2020249
:104B00009142079043D0FFE70F980168012040F2DF
:104B10004042C4F202029142079038D0FFE70F985A
:104B20000168012040F25842C4F20202914207900B
:104B30002DD0FFE70F980168012040F27042C4F2C7
:104B400002029142079022D0FFE70F9801680120EE
:104B500040F28842C4F202029142079017D0FFE768
:104B60000F980168012040F2A042C4F20202914273
:104B700007900CD0FFE70F9800684FF64831CBF64E
:104B8000FD710844B0FA80F040090790FFE70798EC
:104B9000C007002800F01385FFE70E980F99C96D34
:104BA00001F01F01C8400007002840F1B080FFE776
:104BB0000F9800681021C4F20201884200F0818041
:104BC000FFE70F9800682821C4F20201884278D0DC
:104BD000FFE70F9800684021C4F20201884270D0BC
:104BE000FFE70F9800685821C4F20201884268D09C
:104BF000FFE70F9800687021C4F20201884260D07C
:104C0000FFE70F9800688821C4F20201884258D05B
:104C1000FFE70F980068A021C4F20201884250D03B
:104C2000FFE70F980068B821C4F20201884248D01B
:104C3000FFE70F98006840F21041C4F20201884279
:104C40003FD0FFE70F98006840F22841C4F202010C
:104C5000884236D0FFE70F98006840F24041C4F226
:104C6000020188422DD0FFE70F98006840F25841BA
:104C7000C4F20201884224D0FFE70F98006840F296
:104C80007041C4F2020188421BD0FFE70F98006810
:104C900040F28841C4F20201884212D0FFE70F9827
:104CA000006840F2A041C4F20201884209D0FFE747
:104CB0000F98006840F2B841C4F20201884207D15F
:104CC000FFE70F980068006800F00400069006E017
:104CD0000F980068006800F008000690FFE706984B
:104CE000A0B1FFE70F980168086820F00400086091
:104CF0000F98C06D00F01F01082088400999886056
:104D00000F99486D40F001004865FFE7FFE70E98F6
:104D10000F99C96D01F01F01C840C007002800F0BD
:104D2000A980FFE70F9800681021C4F202018842B1
:104D300000F08180FFE70F9800682821C4F202018B
:104D4000884278D0FFE70F9800684021C4F2020142
:104D5000884270D0FFE70F9800685821C4F2020122
:104D6000884268D0FFE70F9800687021C4F2020102
:104D7000884260D0FFE70F9800688821C4F20201E2
:104D8000884258D0FFE70F980068A021C4F20201C2
:104D9000884250D0FFE70F980068B821C4F20201A2
:104DA000884248D0FFE70F98006840F21041C4F2F3
:104DB000020188423FD0FFE70F98006840F2284187
:104DC000C4F20201884236D0FFE70F98006840F233
:104DD0004041C4F2020188422DD0FFE70F980068DD
:104DE00040F25841C4F20201884224D0FFE70F98F4
:104DF000006840F27041C4F2020188421BD0FFE714
:104E00000F98006840F28841C4F20201884212D033
:104E1000FFE70F98006840F2A041C4F20201884207
:104E200009D0FFE70F98006840F2B841C4F20201D0
:104E3000884207D1FFE70F980068406900F08000C2
:104E4000059005E00F980068006800200590FFE7D6
:104E5000059870B1FFE70F98C06D00F01F010120A9
:104E60008840099988600F99486D40F002004865B4
:104E7000FFE7FFE70E980F99C96D01F01F01C840C9
:104E80004007002840F1A980FFE70F980068102133
:104E9000C4F20201884200F08180FFE70F980068A9
:104EA0002821C4F20201884278D0FFE70F980068F9
:104EB0004021C4F20201884270D0FFE70F980068D9
:104EC0005821C4F20201884268D0FFE70F980068B9
:104ED0007021C4F20201884260D0FFE70F98006899
:104EE0008821C4F20201884258D0FFE70F98006879
:104EF000A021C4F20201884250D0FFE70F98006859
:104F0000B821C4F20201884248D0FFE70F98006838
:104F100040F21041C4F2020188423FD0FFE70F98EF
:104F2000006840F22841C4F20201884236D0FFE70F
:104F30000F98006840F24041C4F2020188422DD02F
:104F4000FFE70F98006840F25841C4F2020188421E
:104F500024D0FFE70F98006840F27041C4F20201CC
:104F600088421BD0FFE70F98006840F28841C4F2E6
:104F70000201884212D0FFE70F98006840F2A0417A
:104F8000C4F20201884209D0FFE70F98006840F29E
:104F9000B841C4F20201884207D1FFE70F980068C8
:104FA000006800F00200049005E00F9800680068B7
:104FB00000200490FFE7049870B1FFE70F98C06DE0
:104FC00000F01F0104208840099988600F99486DFE
:104FD00040F004004865FFE7FFE70E980F99C96DA0
:104FE00001F01F01C840C006002840F1DE80FFE745
:104FF0000F9800681021C4F20201884200F08180FD
:10500000FFE70F9800682821C4F20201884278D097
:10501000FFE70F9800684021C4F20201884270D077
:10502000FFE70F9800685821C4F20201884268D057
:10503000FFE70F9800687021C4F20201884260D037
:10504000FFE70F9800688821C4F20201884258D017
:10505000FFE70F980068A021C4F20201884250D0F7
:10506000FFE70F980068B821C4F20201884248D0D7
:10507000FFE70F98006840F21041C4F20201884235
:105080003FD0FFE70F98006840F22841C4F20201C8
:10509000884236D0FFE70F98006840F24041C4F2E2
:1050A000020188422DD0FFE70F98006840F2584176
:1050B000C4F20201884224D0FFE70F98006840F252
:1050C0007041C4F2020188421BD0FFE70F980068CC
:1050D00040F28841C4F20201884212D0FFE70F98E3
:1050E000006840F2A041C4F20201884209D0FFE703
:1050F0000F98006840F2B841C4F20201884207D11B
:10510000FFE70F980068006800F00800039006E0D1
:105110000F980068006800F004000390FFE7039810
:10512000002841D0FFE70F98C06D00F01F0110204C
:105130008840099988600F9800680068400300283B
:105140001AD5FFE70F98006800680003002809D40B
:10515000FFE70F98006C20B1FFE70F98016C8847BC
:10516000FFE708E00F98806C20B1FFE70F98816C93
:105170008847FFE7FFE716E00F9800680068C00562
:10518000002807D4FFE70F980168086820F008009E
:105190000860FFE70F98006C20B1FFE70F98016CE3
:1051A0008847FFE7FFE7FFE7FFE70E980F99C96D14
:1051B00001F01F01C8408006002840F12681FFE76A
:1051C0000F9800681021C4F20201884200F081802B
:1051D000FFE70F9800682821C4F20201884278D0C6
:1051E000FFE70F9800684021C4F20201884270D0A6
:1051F000FFE70F9800685821C4F20201884268D086
:10520000FFE70F9800687021C4F20201884260D065
:10521000FFE70F9800688821C4F20201884258D045
:10522000FFE70F980068A021C4F20201884250D025
:10523000FFE70F980068B821C4F20201884248D005
:10524000FFE70F98006840F21041C4F20201884263
:105250003FD0FFE70F98006840F22841C4F20201F6
:10526000884236D0FFE70F98006840F24041C4F210
:10527000020188422DD0FFE70F98006840F25841A4
:10528000C4F20201884224D0FFE70F98006840F280
:105290007041C4F2020188421BD0FFE70F980068FA
:1052A00040F28841C4F20201884212D0FFE70F9811
:1052B000006840F2A041C4F20201884209D0FFE731
:1052C0000F98006840F2B841C4F20201884207D149
:1052D000FFE70F980068006800F01000029006E0F9
:1052E0000F980068006800F002000290FFE7029843
:1052F000002800F08980FFE70F98C06D00F01F01C3
:1053000020208840099988600F9890F8350004287B
:1053100037D1FFE70F980168086820F01600086091
:105320000F980168486920F0800048610F98006C70
:1053300020B9FFE70F98806C38B1FFE70F9801683C
:10534000086820F008000860FFE70F98C06D00F0C3
:105350001F013F208840099988600F99012081F83A
:105360003500FFE70F99002081F83400FFE70F9820
:10537000006D20B1FFE70F98016D8847FFE700F04F
:1053800019BC0F9800680068400300281AD5FFE791
:105390000F98006800680003002809D4FFE70F9801
:1053A000406C20B1FFE70F98416C8847FFE708E0A9
:1053B0000F98C06B20B1FFE70F98C16B8847FFE7DC
:1053C000FFE720E00F9800680068C005002811D4AE
:1053D000FFE70F980168086820F0100008600F9937
:1053E000012081F83500FFE70F99002081F8340093
:1053F000FFE7FFE70F98C06B20B1FFE70F98C16B85
:105400008847FFE7FFE7FFE7FFE70F98406D0028B9
:1054100000F0D480FFE70F98406DC007002800F02F
:10542000C480FFE70F99042081F835000F980068C9
:105430001021C4F20201884200F08180FFE70F983A
:1054400000682821C4F20201884278D0FFE70F9853
:1054500000684021C4F20201884270D0FFE70F9833
:1054600000685821C4F20201884268D0FFE70F9813
:1054700000687021C4F20201884260D0FFE70F98F3
:1054800000688821C4F20201884258D0FFE70F98D3
:105490000068A021C4F20201884250D0FFE70F98B3
:1054A0000068B821C4F20201884248D0FFE70F9893
:1054B000006840F21041C4F2020188423FD0FFE789
:1054C0000F98006840F22841C4F20201884236D0A9
:1054D000FFE70F98006840F24041C4F202018842A1
:1054E0002DD0FFE70F98006840F25841C4F2020146
:1054F000884224D0FFE70F98006840F27041C4F260
:10550000020188421BD0FFE70F98006840F28841F3
:10551000C4F20201884212D0FFE70F98006840F2FF
:10552000A041C4F20201884209D0FFE70F98006849
:1055300040F2B841C4F20201884207D1FFE70F9858
:105540000168086820F00100086006E00F98016813
:10555000086820F001000860FFE7FFE70B980130C2
:105560000B900A99884201D9FFE707E0FFE70F98FF
:1055700000680068C0070028F0D1FFE70F980068B6
:105580000068C00728B1FFE70F99032081F83500B4
:1055900004E00F99012081F83500FFE7FFE70F993C
:1055A000002081F83400FFE7FFE70F98C06C20B1BE
:1055B000FFE70F98C16C8847FFE7FFE7FAE20F9813
:1055C0000168012045F20842C5F6020291420190AD
:1055D0004ED0FFE70F980168012045F21C42C5F646
:1055E00002029142019043D0FFE70F980168012029
:1055F00045F23042C5F602029142019038D0FFE7F1
:105600000F980168012045F24442C5F6020291421A
:1056100001902DD0FFE70F980168012045F2584214
:10562000C5F602029142019022D0FFE70F9801686F
:10563000012045F26C42C5F602029142019017D05A
:10564000FFE70F980168012045F28042C5F602028B
:10565000914201900CD0FFE70F9800684AF66C3138
:10566000CAF2FD710844B0FA80F040090190FFE7EA
:105670000198C007002800F09B82FFE70F980068A0
:1056800000680C900D980F99C96D01F01F01C8407A
:105690004007002840F1D780FFE79DF83000400721
:1056A000002840F1D080FFE70F98C06D00F01F0187
:1056B00004208840089948609DF8310000060028C1
:1056C00018D5FFE79DF83200C00748B9FFE70F98EB
:1056D000806C20B1FFE70F98816C8847FFE708E0F6
:1056E0000F98006C20B1FFE70F98016C8847FFE727
:1056F000FFE7A7E09DF830008006002800F19980C0
:10570000FFE70F9800681021C4F20201884200F000
:105710008180FFE70F9800682821C4F202018842C7
:1057200078D0FFE70F9800684021C4F20201884258
:1057300070D0FFE70F9800685821C4F20201884238
:1057400068D0FFE70F9800687021C4F20201884218
:1057500060D0FFE70F9800688821C4F202018842F8
:1057600058D0FFE70F980068A021C4F202018842D8
:1057700050D0FFE70F980068B821C4F202018842B8
:1057800048D0FFE70F98006840F21041C4F20201D0
:1057900088423FD0FFE70F98006840F22841C4F2EA
:1057A0000201884236D0FFE70F98006840F240417E
:1057B000C4F2020188422DD0FFE70F98006840F242
:1057C0005841C4F20201884224D0FFE70F980068D4
:1057D00040F27041C4F2020188421BD0FFE70F98EB
:1057E000006840F28841C4F20201884212D0FFE70B
:1057F0000F98006840F2A041C4F20201884209D02B
:10580000FFE70F98006840F2B841C4F202018842F5
:1058100007D1FFE70F980168086820F008000860CA
:1058200006E00F980168086820F004000860FFE7B0
:10583000FFE70F98006C20B1FFE70F98016C8847D5
:10584000FFE7FFE7B3E10D980F99C96D01F01F0164
:10585000C8408007002840F1E180FFE79DF8300054
:105860008007002840F1DA80FFE70F98C06D00F054
:105870001F0102208840089948609DF83100000609
:10588000002818D5FFE79DF83200C00748B9FFE7A8
:105890000F98406C20B1FFE70F98416C8847FFE7F5
:1058A00008E00F98C06B20B1FFE70F98C16B8847E5
:1058B000FFE7FFE7B1E09DF830008006002800F127
:1058C000A380FFE70F9800681021C4F2020188420C
:1058D00000F08180FFE70F9800682821C4F20201E0
:1058E000884278D0FFE70F9800684021C4F2020197
:1058F000884270D0FFE70F9800685821C4F2020177
:10590000884268D0FFE70F9800687021C4F2020156
:10591000884260D0FFE70F9800688821C4F2020136
:10592000884258D0FFE70F980068A021C4F2020116
:10593000884250D0FFE70F980068B821C4F20201F6
:10594000884248D0FFE70F98006840F21041C4F247
:10595000020188423FD0FFE70F98006840F22841DB
:10596000C4F20201884236D0FFE70F98006840F287
:105970004041C4F2020188422DD0FFE70F98006831
:1059800040F25841C4F20201884224D0FFE70F9848
:10599000006840F27041C4F2020188421BD0FFE768
:1059A0000F98006840F28841C4F20201884212D088
:1059B000FFE70F98006840F2A041C4F2020188425C
:1059C00009D0FFE70F98006840F2B841C4F2020125
:1059D000884207D1FFE70F980168086820F014009B
:1059E000086006E00F980168086820F00A00086067
:1059F000FFE70F99012081F83500FFE70F9900209C
:105A000081F83400FFE7FFE70F98C06B20B1FFE794
:105A10000F98C16B8847FFE7FFE7C7E00D980F9924
:105A2000C96D01F01F01C8400007002840F1BC808B
:105A3000FFE79DF830000007002840F1B580FFE740
:105A40000F9800681021C4F20201884200F08180A2
:105A5000FFE70F9800682821C4F20201884278D03D
:105A6000FFE70F9800684021C4F20201884270D01D
:105A7000FFE70F9800685821C4F20201884268D0FD
:105A8000FFE70F9800687021C4F20201884260D0DD
:105A9000FFE70F9800688821C4F20201884258D0BD
:105AA000FFE70F980068A021C4F20201884250D09D
:105AB000FFE70F980068B821C4F20201884248D07D
:105AC000FFE70F98006840F21041C4F202018842DB
:105AD0003FD0FFE70F98006840F22841C4F202016E
